:100000000C9468030C94B2050C94750C0C94850345
:100010000C9485030C9485030C9485030C946F0455
:100020000C9485030C9485030C9485030C94850330
:100030000C9485030C94A3030C94BE030C948503C9
:100040000C9485030C9485030C9485030C94850310
:100050000C94850345464765666700202B2D2E309E
:1000600031323334353637383968000A4469736BB6
:100070002025633A2025732F2573000A44656664A2
:1000800069723A202573000AD0A1D0BED0B7D0B48F
:10009000D0B0D0BDD0B8D0B520D0B4D0B5D184D0F8
:1000A000BED0BBD182D0BDD0BED0B920D0BAD0BED8
:1000B000D0BDD184D0B8D0B3D183D180D0B0D186D7
:1000C000D0B8D0B820D0BCD0BED0BDD182D0B8D1AD
:1000D00080D0BED0B2D0B0D0BDD0B8D0B820D0B4CF
:1000E000D0B8D181D0BAD0BED0B2000AD09DD0B0A5
:1000F000D0B6D0B0D182D0B020D0BAD0BDD0BED092
:10010000BFD0BAD0B020D181D0B1D180D0BED18102
:10011000D0B020D0BAD0BED0BDD184D0B8D183D198
:1001200080D0B0D186D0B8D0B8000AD09CD0BED094
:10013000BDD182D0B8D180D0BED0B2D0B0D0BDD0E9
:10014000B8D18F20D0B4D0B8D181D0BAD0BED0B27F
:10015000000AD09ED0B6D0B8D0B4D0B0D0BDD0B800
:10016000D0B520D0B7D0B0D0B3D180D183D0B7D064
:10017000BAD0B82053746167653120D0B220D09ACC
:10018000D0BED180D0B2D0B5D182000AD0A1D0B13A
:10019000D180D0BED18120D0BAD0BED0BDD184D044
:1001A000B8D0B3D183D180D0B0D186D0B8D0B80088
:1001B0000A0AD092D181D0B5D0B3D0BE2025692013
:1001C000D184D0B0D0B9D0BBD0BED0B20A000A25FD
:1001D000693A2025732020256C75000A25693A208C
:1001E00025732020203C4449523E000A207265615C
:1001F0006464697220232569206572726F723A25E2
:10020000303478000A0A202D2D20D09AD0BED1801B
:10021000D0BDD0B5D0B2D0BED0B920D0BAD0B0D138
:1002200082D0B0D0BBD0BED0B320D0BAD0B0D180B5
:10023000D182D18B202D2D0A000AD09ED188D0B832
:10024000D0B1D0BAD0B820D0B220D0BAD0BED180F0
:10025000D0BDD0B5D0B2D0BED0BC20D0BAD0B0D1F5
:1002600082D0B0D0BBD0BED0B3D0B53A2530327832
:10027000000AD09DD0B5D18220D184D0B0D0B9D0E1
:10028000BBD0BED0B2D0BED0B920D181D0B8D18140
:10029000D182D0B5D0BCD18B3A2569000A7265767F
:1002A000202569202073657261696C202569000A28
:1002B00050726F64756374202D20000A43415244CC
:1002C000204D49443D25327820204F49443D253278
:1002D00078000A534420D0BAD0B0D180D182D0B0B7
:1002E00020D0BDD0B520D0BDD0B0D0B9D0B4D0B51D
:1002F000D0BDD0B021000AD09ED188D0B8D0B1D026
:10030000BAD0B020D0B8D0B4D0B5D0BDD182D0B89A
:10031000D184D0B8D0BAD0B0D186D0B8D0B8202D42
:1003200020253278000AD098D0BDD0B8D186D0B878
:10033000D0B0D0BBD0B8D0B7D0B0D186D0B8D18FE4
:100340002053442DD0BAD0B0D180D182D18B000AB5
:100350000A2020202A2A2A20457874726F6D202DC9
:100360002053442076657273696F6E3A25732A2A8A
:100370002A0A0A000A3F20257820000A4452562003
:100380004552523A202578000A4353204552523AAA
:1003900020723A257820633A2578000A20D09AD036
:1003A000B0D182D0B0D0BBD0BED0B320257320D086
:1003B000BDD0B520D0BDD0B0D0B9D0B4D0B5D0BDAF
:1003C000000A4465666469723A202573000A2D2D7F
:1003D00020D092D181D0B5D0B3D0BE20256920D015
:1003E000BAD0B0D182D0B0D0BBD0BED0B3D0BED006
:1003F000B22D2D000A25693A2025732020256C7521
:10040000000A207265616464697220232569206591
:1004100072726F723A2025303478202D20253034C6
:1004200078000AD0A1D0BFD0B8D181D0BED0BA2038
:10043000D0BAD0B0D182D0B0D0BBD0BED0B3D0BEB5
:10044000D0B220D0BAD0B0D180D182D18B000A2DC9
:100450002D20D092D181D0B5D0B3D0BE2025692037
:10046000D184D0B0D0B9D0BBD0BED0B22D2D000A2F
:1004700025693A2025732020256C75000A207265B5
:10048000616464697220232569206572726F723A13
:100490002025303478202D2025303478000AD09A59
:1004A000D0B0D182D0B0D0BBD0BED0B320D0BED0DF
:1004B000B1D180D0B0D0B7D0BED0B2000AD09AD0DF
:1004C000BED0BDD184D0B8D0B320D0BFD0BE20D153
:1004D00083D0BCD0BED0BBD187D0B0D0BDD0B8D136
:1004E0008E20703D256920723D2569000A4D4F55CB
:1004F0004E542E4346473A20663D25782020703DD5
:100500002569000D2569000AD0A1D0BED0B7D0B4AE
:10051000D0B0D0BDD0B8D0B520D184D0B0D0B9D073
:10052000BBD0B02E2E2E0A000A0020535953543D42
:100530002569000A204D6F756E742025633A2025C9
:100540007320205350543D2569000AD094D0B8D16F
:1005500081D0BA2025633A20D0BDD0B520D187D034
:10056000B8D182D0B0D0B5D182D181D18F000AD09C
:1005700094D0B8D181D0BA2025633A202D20D0BDA7
:10058000D0B5D18220D184D0B0D0B9D0BBD0B020EA
:1005900025732C202569000A20D0BDD0B5D0BAD053
:1005A000BED180D180D0B5D0BAD182D0BDD18BD0D0
:1005B000B9202320D0B4D0B8D181D0BAD0B03A205D
:1005C0002569000AD097D0B0D0B3D180D183D0B7FD
:1005D000D0BAD0B02053746167653220D0BED0BA93
:1005E000D0BED0BDD187D0B5D0BDD0B0000D204297
:1005F0006C6F636B2023202569000A20D0BED18850
:10060000D0B8D0B1D0BAD0B020D187D182D0B5D0B7
:10061000BDD0B8D18F202569000A4C6F6164657226
:100620002073697A653A202578000A4C6F61646509
:100630007220626173653A202578000A202D20D04F
:10064000BDD0B5D18220D184D0B0D0B9D0BBD0B08C
:1006500021000A4C6F616465722066696C653A20FE
:100660002573000AD097D0B0D0B3D180D183D0B752
:10067000D0BAD0B0205374616765320A002A0A00EC
:10068000202A00202020000A20D0A2D0B0D0B9D04B
:10069000BCD0B0D183D18220D0B4D0B0D0BDD0BD39
:1006A000D18BD185202D202530327820202569005E
:1006B00080C300DA0A0000010101030105005000B7
:1006C0002800040F008A017F00C0002000020010F3
:1006D00011241FBECFE5D8E0DEBFCDBF10E0A0E6FD
:1006E000B0E0E0EDF7E402C005900D92A83FB1073D
:1006F000D9F715E0A8EFB0E001C01D92AE3AB107FE
:10070000E1F70E94EC1F0C94E6230C940000CF93B9
:10071000C82F8A30A1F0209128022F5F2F77909167
:1007200027022917E1F3E22FF0E0E75DFD4FC083D8
:1007300020932802559A80E090E0CF9108958DE0B3
:100740000E948703E8CF1F920F920FB60F921124D9
:100750008F93EF93FF938CB1E091AA02EF5FEF705C
:10076000E093AA02F0E0E555FD4F8083FF91EF9101
:100770008F910F900FBE0F901F9018951F920F92A0
:100780000FB60F9211248F939F93EF93FF93909145
:100790002802809127029817A1F0E0912702EF5FCD
:1007A000EF77E0932702F0E0E75DFD4F80818CB9A1
:1007B000FF91EF919F918F910F900FBE0F901F901F
:1007C00018955598F5CF909128028091270298139B
:1007D000FACF0895209128022F5F2F77909127025A
:1007E0002917E1F3E22FF0E0E75DFD4F80832093CE
:1007F0002802559A08959091AA028091A90298170B
:10080000D1F3E091A902EF5FEF70E093A902F0E06D
:10081000E555FD4F2081909128029F5F9F77809141
:1008200027029817E1F3A92FB0E0A75DBD4F2C93E5
:1008300090932802559A80810895982F92959F70E1
:1008400030E3390F3A3310F037E3390F20912802A3
:100850002F5F2F77909127022917E1F3E22FF0E025
:10086000E75DFD4F308320932802559A8F7020E377
:10087000280F2A3310F027E3280F909128029F5F5A
:100880009F77809127029817E1F3E92FF0E0E75D69
:10089000FD4F208390932802559A08950F931F933C
:1008A000CF93DF93062F662361F0EC0110E0609197
:1008B000AA057091AB0589910E9487031F5F1013F1
:1008C000F6CFDF91CF911F910F9108952091AA0249
:1008D0009091A90281E02913089580E008951F9264
:1008E0000F920FB60F9211248F939F938091A601C0
:1008F0008F5F8093A6018091A501813019F498B390
:10090000982798BB9F918F910F900FBE0F901F90CB
:1009100018959BB79F779BBF9DE09EBD44EC59E027
:100920005BBD4ABDB89AC09A1DBC1CBC99B790610A
:1009300099BF282F30E0220F331F41E01092A6010B
:100940004093A5018091A60190E082179307D4F30C
:100950001092A6011092A5018091A6018630E0F3C5
:10096000EDCF8FB9779BFECF8FB1089580648FB99B
:10097000779BFECF8FB1872F9927AA27BB278FB9E7
:10098000779BFECF8FB1CB01AA27BB278FB9779B6F
:10099000FECF8FB1BB27A72F962F852F8FB9779BBF
:1009A000FECF8FB14FB9779BFECF8FB185E98FB95D
:1009B000779BFECF8FB12FEF3FEF9FEF9FB9779BD4
:1009C000FECF8FB187FF06C02150310921153105B7
:1009D000A9F78AEA0895CF93DF932FEF3FEFFFEF58
:1009E000FFB9779BFECFEFB1EE3FC9F0215031093F
:1009F00021153105A9F77F936F931F92EF9387E835
:100A000096E09F938F930E942F230F900F900F904B
:100A10000F900F900F9081E0DF91CF910895E0E06B
:100A2000F0E020E030E0DFEF640F751FDFB9779B67
:100A3000FECFCFB12417350740F06217730728F0B7
:100A4000DC01AE0FBF1FCC9331962F5F3F4F2115B6
:100A5000A2E03A0759F78FEF8FB9779BFECF8FB19E
:100A60008FEF8FB9779BFECF8FB180E0DF91CF9171
:100A70000895EF92FF920F931F93CF93DF93EC01B2
:100A8000790181E10E94B604811110C08FEF8FB906
:100A9000779BFECF8FB1A801B701CE01DF91CF9137
:100AA0001F910F91FF90EF900C94EB04DF91CF9189
:100AB0001F910F91FF90EF9008951F93CF93DF93B5
:100AC0001F92CDB7DEB7182F88E199830E94B60434
:100AD000998181112AC08FEF8FB9779BFECF8FB19B
:100AE0008EEF8FB9779BFECF8FB1E12FF92F80E08A
:100AF00090E021912FB9779BFECF2FB10196811500
:100B000022E09207B1F78FEF8FB9779BFECF8FB1BD
:100B10008FEF8FB9779BFECF8FB18FEF8FB9779B18
:100B2000FECF8FB1857031F48AEA0F90DF91CF91BB
:100B30001F9108958FEF9FEF3FEF3FB9779BFECF57
:100B40002FB12F3F21F001970097B9F7EDCF80E04B
:100B50000F90DF91CF911F9108959FBB8EBBE09ABC
:100B60008DB308951F920F920FB60F9211242F93F9
:100B70003F934F935F938F939F93829915C080917A
:100B8000A401811107C01ABA1BBA1092A40182E015
:100B900081BB55C08FEC97E00197F1F700C00000D2
:100BA00082994DC00C9400008FEF8ABB84E090E0E6
:100BB0009FBB8EBBE09A8DB38BBB879BFECF85E03E
:100BC00090E09FBB8EBBE09A8DB38BBB8799FECF25
:100BD00086E090E09FBB8EBBE09A8DB38BBB879B7A
:100BE000FECF87E090E09FBB8EBBE09A8DB38BBBBE
:100BF0008799FECF40E080E090E09C012F5F3F4F5F
:100C00009FBB8EBBE09A5DB35BBB879BFECF02961A
:100C10003FBB2EBBE09A2DB32BBB8799FECF8F3FF6
:100C2000910521F018F04F5F80E090E0433028F309
:100C300082E581BB80E582BB81E08093A4019F9126
:100C40008F915F914F913F912F910F900FBE0F9019
:100C50001F9018952F923F924F925F926F927F92C2
:100C60008F929F92AF92BF92CF92DF92EF92FF92BC
:100C70000F931F93CF93DF933C018B016091AA05E3
:100C80007091AB058AE00E948703101611060CF0E4
:100C900078C0E30160965301C12CD12C43E8E42EC7
:100CA00046E0F42E50E2352E60E8862E66E0962E61
:100CB0007EE2272E8D2D0E941D048C2D0E941D0486
:100CC00062E085E790E00E944E042501C20186198A
:100CD0009709801791070CF08FC0D2018C910E9468
:100CE0001D04909128029F5F9F778091270298179B
:100CF000E1F3E92FF0E0E75DFD4F308290932802A9
:100D0000559ABFEF4B1A5B0A4C165D06F9F69F9297
:100D10008F920E942F230F900F90F501CF0186191B
:100D20009709801791070CF056C0208180EE820F42
:100D3000909128029F5F9F778F35B0F180912702B5
:100D40009817E1F3A92FB0E0A75DBD4F2C929093C7
:100D50002802559A3196EC17FD0701F7ADE7B6E08A
:100D6000BF93AF930E942F23F0E1CF0ED11C60966A
:100D700080E1A80EB11C0F900F90C016D1060CF4A4
:100D800099CFDF91CF911F910F91FF90EF90DF905E
:100D9000CF90BF90AF909F908F907F906F905F901B
:100DA0004F903F902F900895809127029817E1F37C
:100DB000A92FB0E0A75DBD4F2C9390932802559AC0
:100DC0003196EC17FD0751F2CF018619970980176C
:100DD00091070CF4AACF909128029F5F9F77809192
:100DE00027029817E1F3A92FB0E0A75DBD4F3C9211
:100DF00090932802559AE4CFFF92EF920E942F23FE
:100E00000F900F907ECF8599FECF8BBB9698859BD8
:100E1000FECF969A08956115710571F0FC01680F77
:100E2000791F8599FECF81918BBB9698859BFECFCC
:100E3000969AE617F707A9F708958399FECF1ABA8D
:100E40009498000000000000000089B3949A839BEE
:100E5000FECF9FEF9ABB08951ABA6115710591F004
:100E6000FC01680F791F8399FECF94980000000061
:100E70000000000089B3949A8193839BFECFE6170C
:100E8000F70789F78AB780688ABF8FEF8ABB089512
:100E9000CF92DF92EF92FF920F931F93CF93DF9346
:100EA00000D0CDB7DEB70E949C1E8C0183E696E091
:100EB0009F938F930E942F230E941D070F900F90E6
:100EC000883009F4B9C099E0E3E8F0E0D801019076
:100ED0000D929A95E1F7805DF80183831F930F933C
:100EE00082E596E09F938F930E942F230E946119C1
:100EF00090E09A8389830F900F900F900F90892B29
:100F000009F0A3C00E94681EC0909F05D090A00564
:100F1000E090A105F090A205CD2CDE2CEF2CFF2453
:100F200040E066E070E080E090E00E94511AAE017F
:100F30004F5F5F4F61E070E087EA91E00E94131A13
:100F40008091A7010E9403078091A7011F928F93B0
:100F50008AE296E09F938F930E942F238C2D0E940C
:100F60000307D12C1F92CF9289E196E09F938F9334
:100F70000E942F236091AA057091AB058AE00E9420
:100F8000870340E060E070E0CB010E94511ACC0C76
:100F9000DD1C0FB6F894DEBF0FBECDBFC114D10467
:100FA000C1F1E12CF12C0DEE15E01AC089819A8176
:100FB000892B79F160E870E087EA91E00E940B07E5
:100FC000FF92EF921F930F930E942F239FEFE91A36
:100FD000F90A0F900F900F900F90EC14FD04C9F0D8
:100FE000AE014F5F5F4F60E870E087EA91E00E94DA
:100FF000131A8823D9F28091C9041F928F938AEF24
:1010000095E09F938F930E942F230F900F900F9046
:101010000F9083EC95E09F938F930E942F230F9066
:101020000F900F900F90DF91CF911F910F91FF9034
:10103000EF90DF90CF9008958BE0E8E7F0E0D801E3
:1010400001900D928A95E1F749CF8BE396E09F934B
:101050008F930E942F2382E00E9489048F929F9297
:10106000AF92BF92CF92DF92EF92FF920F931F93B6
:10107000CF93DF9300D0CDB7DEB7882E6B01942ECF
:101080000E949C1E8C0124E0281508F49DC0FC01E0
:101090001082E82CF12C911085C0B601C8010E9485
:1010A000EB22882D0E94F91D0E946119882379F195
:1010B0008091C9041F928F931F930F93C7018F5B79
:1010C0009F4F9F938F938EE695E09F938F930E94FF
:1010D0002F23F701E750FF4F10820FB6F894DEBFC1
:1010E0000FBECDBF90912802809127029813FACFAE
:1010F0000F900F90DF91CF911F910F91FF90EF9084
:10110000DF90CF90BF90AF909F908F900895AE01E9
:101110004F5F5F4F60E270E087EA91E00E94131A30
:1011200081115FC08091B701F701EF56FE4F5F015B
:101130008083811007C0992009F4ADC08091C4015B
:1011400080939001F8011082F1E09F1609F461C0CC
:10115000B601C8010E94EB22F50180811F928F9396
:101160001F930F93C7018F5B9F4F9F938F9383E3D1
:1011700095E09F938F930E942F230FB6F894DEBFC4
:101180000FBECDBF911078C088E295E09F938F93FA
:101190000E942F23F701E750FF4F81E080830F90DB
:1011A0000F90A0CFFEE08F9EB00111246C5F7E4FA8
:1011B0000E94F622F80101900020E9F731972FE212
:1011C00030E03183208369CF1F928F9287E995E0C9
:1011D0009F938F930E942F230F900F900F900F904B
:1011E00087CF1F930F93C7018F5B9F4F9F938F9361
:1011F0008AE495E09F938F930E942F23F701E75095
:10120000FF4F10820F900F900F900F900F900F9044
:1012100069CFC701880F991FBC01660F771F660F42
:10122000771F660F771F681B790B6C5F7E4FC801B5
:101230000E94F622F80101900020E9F731978FE231
:101240008083B601CF0101960E94F622F5018081CC
:101250001F928F931F930F93C7018F5B9F4F9F9395
:101260008F9383E395E09F938F930E942F230FB674
:10127000F894DEBF0FBECDBF809190011F928F9377
:101280008AE295E09F938F930E942F230F900F90F7
:101290000F900F9079CFF8011082B601C8010E941B
:1012A000EB22F50180811F928F931F930F93C7014B
:1012B0008F5B9F4F9F938F9383E395E09F938F93D3
:1012C0000E942F230FB6F894DEBF0FBECDBF5CCFB8
:1012D000FF920F931F93CF93DF93F82E8B010E9401
:1012E0009C1EEC018F2D0E94F91D66E971E0CE0174
:1012F0000E94F622FE0101900020E9F731978FE26B
:101300008083B801CF0101960E94F62281E00E94FD
:101310008B1627E035E03F932F930E942F2340E860
:1013200050E065EE70E087EA91E00E94E42240E23E
:1013300050E060EB76E087EA91E00E94BA2260E834
:1013400070E087EA91E00E94BC1D40E250E065EE4B
:1013500070E087EA91E00E94E42240E060E078E2F9
:1013600080E090E00E94511A0F900F90C0E0D0E012
:1013700003E015E060E870E087EA91E00E94BC1DA0
:101380002196DF93CF931F930F930E942F230F90EB
:101390000F900F900F90C032D10561F740E060E8E8
:1013A0007FE78CE090E00E94511A60E870E087EAE5
:1013B00091E00E94BC1D0E94651DEF2DF0E0E750FA
:1013C000FF4F81E08083DF91CF911F910F91FF90BC
:1013D0000895EF92FF920F931F93CF93DF9300D066
:1013E000CDB7DEB7F82EE62E0E949C1E8C011F9210
:1013F000EF921F92FF922CEE34E03F932F930E94C6
:101400002F2385E00E94F91D8AE0ECE8F0E0D80186
:1014100001900D928A95E1F70E946119182F0F90A3
:101420000F900F900F900F900F9081117EC0AE0122
:101430004F5F5F4F6EE770E087EA91E00E94131AFA
:10144000EE2009F475C0F0FE12C08EE0E4E0F1E099
:10145000A7EAB1E001900D928A95E1F78EE0EAE407
:10146000F1E0A5EBB1E001900D928A95E1F7F1FE74
:1014700012C08EE0E2E1F1E0A3ECB1E001900D9248
:101480008A95E1F78EE0E8E5F1E0A1EDB1E00190A9
:101490000D928A95E1F7F2FE12C08EE0E0E2F1E0F3
:1014A000AFEDB1E001900D928A95E1F78EE0E6E6AE
:1014B000F1E0ADEEB1E001900D928A95E1F7F3FE17
:1014C00012C08EE0EEE2F1E0ABEFB1E001900D92E0
:1014D0008A95E1F78EE0E4E7F1E0A9E0B2E001905F
:1014E0000D928A95E1F7F4FE09C08EE0E6E9F1E09D
:1014F000A7E1B2E001900D928A95E1F740E060E04B
:1015000070E0CB010E94511A6EE770E087EA91E02B
:101510000E94BC1D0E94651D0F900F90DF91CF911E
:101520001F910F91FF90EF90089581E00E948B161C
:101530001F921F931F92EF922CEB34E03F932F9357
:101540000E942F238AE0E6E9F0E0AAE4B1E00190EE
:101550000D928A95E1F78AE0E0EAF0E0A8E5B1E0D3
:1015600001900D928A95E1F78AE0EAEAF0E0A6E6BA
:10157000B1E001900D928A95E1F78AE0E4EBF0E0AA
:10158000A4E7B1E001900D928A95E1F724E031E003
:101590000F900F900F900F900F900F9085E0EEEB53
:1015A000F0E0D901982F01900D929A95E1F7225F12
:1015B0003F4F91E02C33390791F764E071E086E901
:1015C00091E00E94F6223FCF8F929F92AF92BF92FE
:1015D000CF92DF92EF92FF920F931F93CF93DF93FF
:1015E0000E949C1E7C0185E00E94F91D66E971E065
:1015F000C7010E94F6220E9477198DE994E09F931B
:101600008F930E942F230F900F90C12CD12CC0E0FC
:10161000D0E0870100521E4F470185E1881A8EEF06
:10162000980A94E0E91A9EEFF90A8FE6A82E84E062
:10163000B82E0E947D1690E0009781F5F801808118
:10164000882309F441C0F40110828E3209F1F701B8
:1016500083818F9382818F9381818F9380818F93F8
:101660001F930F93DF93CF93BF92AF920E942F23CC
:101670006EE070E0C8010E940B079FEFC91AD90AFB
:10168000EDB7FEB73A960FB6F894FEBF0FBEEDBFAA
:1016900021960E947D1690E0009781F22091C90466
:1016A0001F922F939F938F93DF93CF938CE794E0B8
:1016B0009F938F930E942F238DB79EB708960FB6E6
:1016C000F8949EBF0FBE8DBF80E00E940307DF929B
:1016D000CF928EE494E09F938F930E942F230F90DC
:1016E0000F900F900F90DF91CF911F910F91FF906E
:1016F000EF90DF90CF90BF90AF909F908F90089524
:101700008F929F92AF92BF92CF92DF92EF92FF9211
:101710000F931F93CF93DF930E949C1E6C0185E073
:101720000E94F91DF60110820E94771982E294E06E
:101730009F938F930E942F230F900F90C0E0D0E0D3
:10174000860100521E4F7601F5E1EF1AFEEFFF0A07
:1017500084E0C81A8EEFD80A94EF892E93E0992E70
:101760000E947D1690E0009781F4F8018081882323
:1017700011F18E3221F0F70180818031C1F1219683
:101780000E947D1690E0009781F32091C9041F927A
:101790002F939F938F93DF93CF9381E094E09F9358
:1017A0008F930E942F238DB79EB708960FB6F8949B
:1017B0009EBF0FBE8DBF80E00E940307BF92AF9215
:1017C0008DEC93E09F938F930E942F230F900F90A7
:1017D0000F900F90DF91CF911F910F91FF90EF909D
:1017E000DF90CF90BF90AF909F908F900895108220
:1017F000F60183818F9382818F9381818F93808182
:101800008F931F930F93DF93CF939F928F920E949A
:101810002F236EE070E0C8010E940B079FEFA91A0A
:10182000B90AEDB7FEB73A960FB6F894FEBF0FBEF1
:10183000EDBF2196A5CFDF92EF92FF920F931F93FA
:10184000CF93DF93CDB7DEB72E970FB6F894DEBFF8
:101850000FBECDBFD82E0E949C1E7C0185E00E9449
:10186000F91D6EE070E08E010F5F1F4FC8010E94EE
:101870002C07B801C7010E94F6220E947719811136
:1018800022C01F930F9321EC33E03F932F930E94CC
:101890002F23B80186E991E00E94F6220F900F9065
:1018A0000F900F9081E0D816D9F02E960FB6F894CD
:1018B000DEBF0FBECDBFDF91CF911F910F91FF9083
:1018C000EF90DF9008951F930F938BE993E09F9320
:1018D0008F930E942F230F900F900F900F90E5CFC2
:1018E00061E080E10E94E909E0CF1F920F920FB6FC
:1018F0000F9211246F927F929F92AF92CF92DF92BC
:10190000EF92FF920F931F932F933F934F935F9309
:101910006F937F938F939F93AF93BF93EF93FF93B7
:10192000CF93DF9300D000D0CDB7DEB7829B02C04B
:10193000839B21C00F900F900F900F90DF91CF915C
:10194000FF91EF91BF91AF919F918F917F916F9197
:101950005F914F913F912F911F910F91FF90EF90C9
:10196000DF90CF90AF909F907F906F900F900FBEC1
:101970000F901F9018958BB78F778BBF7894C09876
:101980000E941D07082F0E941D07182F0E941D0787
:10199000A82E0E941D07982E0E941D07902F910FC0
:1019A00091509A0D990D9817B1F01F928F931F9235
:1019B0009F9388E893E09F938F930E942F230F902B
:1019C0000F900F900F900F900F90C09AF8948BB7D4
:1019D00080688BBFAFCF153060F5043811F1C8F1C6
:1019E000083809F440C108F465C0013A09F443C15C
:1019F00008F4E8C0003F09F4FAC0013F09F02EC125
:101A00008AE58CB981E00E94030700E010E00E94A3
:101A10001D070F5F1F4F17FFFACF8AB780688ABF75
:101A2000D4CF84E48CB981E00E9403070E94E40AC9
:101A3000CCCF1F921F938BE793E09F938F930E94CD
:101A40002F2380E00E9403070F900F900F900F90BC
:101A5000BCCF003809F4DAC0F0F1023809F442C111
:101A600008F014C18DE48CB981E00E940307C12EF7
:101A7000D12CFEE01F9F70011124C701865B9E4F91
:101A80003C016EE070E00E942C07D601A250BF4FCF
:101A9000AC9266E971E0C7018C5F9E4F0E94F6220E
:101AA00091E0991609F475C141E0B301812F0E94BC
:101AB0002E088BCF063809F40CC108F002C185E569
:101AC0008CB981E00E9403076EE070E086E991E046
:101AD0000E940B077ACF002309F483C0033008F07B
:101AE000BDC0111106C0F090660081E0F81609F43F
:101AF00027C1812F0E94F91D212F30E0F901E75005
:101B0000FF4F7F018081882309F4F6C0F901EF5669
:101B1000FE4F8081692D70E0A89E600D711D11241B
:101B2000882777FD8095982F660F771F881F991F4C
:101B3000660F771F881F991F660F771F881F991FD1
:101B4000660F771F881F991F660F771F881F991FC1
:101B5000660F771F881F991F660F771F881F991FB1
:101B600040E01B833C830E94511A2B813C81013051
:101B700009F419C187E58CB9F7018081882309F43C
:101B8000BBC0F901E250FF4F8081813009F4B4C03D
:101B900081E00E94030760E870E087EA91E00E941C
:101BA0002C07111108C080910301882321F0809136
:101BB000660081110ACF60E870E087EA91E00E9438
:101BC000BC1D03CF003A09F049C011119CC081E04F
:101BD0000E940307A1109BC01092660083E58CB998
:101BE000F4CE80E38CB981E00E940307EECE85E558
:101BF0008CB981E00E94030700E010E08BEE0E94A8
:101C000003070F5F1F4F17FFF9CFDFCE86E48CB9B4
:101C100081E00E940307012F10E0F801E250FF4F1E
:101C200080810E940307C801880F991F8C01000F53
:101C3000111F000F111F000F111F081B190B6EE061
:101C400070E0C8018C5F9E4F0E940B076EE070E051
:101C5000C801865B9E4F0E940B07B7CE1F920F9361
:101C600084E793E0EACE8CE78CB981E00E94030719
:101C700010920201AACE8BE48CB980E00E94030787
:101C80008BB7A1103DC08F7B8BBF9FCE83E48CB9F7
:101C900081E00E940307EEE01E9F70011124C7013E
:101CA000865B9E4F7C016EE070E00E942C07B701BE
:101CB000812F0E94680941E0B701812F0E942E0800
:101CC00084CE8FE28CB981E00E9403070E94800BD2
:101CD0007CCE8AE48CB981E00E940307892D0E94A2
:101CE0001B0C73CE81E58CB9E12FF0E0E750FF4F7C
:101CF00080810E94030769CE80E00E94030765CEC1
:101D000080648BBF62CE80E00E94030767CF81E0D2
:101D100080936600E0916400F0916500A6828FEFE9
:101D20008A0D8093F800833038F082E08093F800C9
:101D300082E08093900152CF8130D1F783E0F9CFD8
:101D400080919001A81690F48091030181110EC03A
:101D5000E091F800F0E0EE0FFF1FE05AFF4F6081C6
:101D6000718140E00E942E08F09203018091900161
:101D7000A81608F4BECE80910301813009F0B9CED7
:101D800041E06AE471E080E00E942E0810920301B5
:101D9000B0CE61E081E0012E01C0880F0A94EAF71D
:101DA0000E94E90981CE82E58CB9AE014F5F5F4F99
:101DB00060E870E087EA91E00E94131A81119CCFDD
:101DC00081E00E94030760E870E087EA91E00E94EA
:101DD0000B07FBCD0F931F938091D60440919F0575
:101DE0005091A0056091A1057091A205042F811169
:101DF00035C010E0000F111F452F562F672F772792
:101E00008091CE049091CF04A091D004B091D104E0
:101E1000480F591F6A1F7B1FF9E0440F551F661FAB
:101E2000771FFA95D1F722E030E08FE995E00E9424
:101E3000390581116AC080919F059091A005A091FC
:101E4000A105B091A205AA27BB2780939F05909377
:101E5000A005A093A105B093A20539C00F7710E0AB
:101E6000000F111F000F111F97E07695679557958A
:101E700047959A95D1F78091CE049091CF04A09187
:101E8000D004B091D104480F591F6A1F7B1F29E06D
:101E9000440F551F661F771F2A95D1F724E030E0C5
:101EA0008FE995E00E94390581112FC080919F052F
:101EB0009091A005A091A105B091A205BF7080935B
:101EC0009F059093A005A093A105B093A205823031
:101ED0009105A105B10568F04091BD045091BE0483
:101EE0006091BF047091C00484179507A607B707D7
:101EF00080F010929F051092A0051092A1051092FB
:101F0000A20580E01F910F91089581E01F910F912C
:101F1000089580E01F910F9108958F929F92AF9244
:101F2000BF92CF92DF92EF92FF920F931F93E091B7
:101F3000C104F091C20481818823C9F08281938118
:101F4000019693838283009709F06BC013821282FB
:101F500010929B04118280E01F910F91FF90EF90EF
:101F6000DF90CF90BF90AF909F908F900895138295
:101F7000128281E08183C484D584E684F784C4829C
:101F8000D582E682F782A091A705A701960122508B
:101F9000310941095109B0E00E946A220091C5044B
:101FA0001091C6042091C7043091C804600F711FBE
:101FB000821F931F60939F057093A0058093A105D6
:101FC0009093A2056087718782879387CD28CE285A
:101FD000CF28A1F0DC01CB0100E010E0AC01BD0195
:101FE000A9E0440F551F661F771FAA95D1F720E27D
:101FF00030E08BE994E00E943905AECF5091CA04DD
:102000004091CB043091CC042091CD04508741877E
:1020100032872387852F942FA32FB22F00E010E063
:10202000DDCFC480D580E680F780C114D104E104FF
:10203000F10441F42091C3043091C4048217930742
:1020400009F484CF8C010F7011270115110511F5CA
:1020500080849184A284B3842FEF821A920AA20A08
:10206000B20A80869186A286B386C114D104E104A7
:10207000F10469F0929582958F7089279F70892766
:102080006091A70570E00E947522892B81F0D5012F
:10209000C401A4CF000F111F02951295107F1027C5
:1020A000007F102780859185A285B38597CFC09248
:1020B0009F05D092A005E092A105F092A2050E9492
:1020C000EA0E811148C040919F055091A005609192
:1020D000A1057091A205E091C104F091C2044115DF
:1020E00051056105710509F433CF44835583668337
:1020F0007783A091A7059A01AB01225031094109CC
:102100005109B0E00E946A220091C5041091C604F2
:102110002091C7043091C804600F711F821F931F64
:1021200060939F057093A0058093A1059093A205ED
:102130006087718782879387028113810F701127CF
:10214000000F111F02951295107F1027007F102796
:10215000DC01CB0143CF81E0FFCECF92DF92EF9243
:10216000FF926B017C018091D2049091D304A091E5
:10217000D404B091D5040097A105B10599F0B70139
:10218000A601480F591F6A1F7B1FE9E0440F551F26
:10219000661F771FEA95D1F78BEB92E00E945D05F1
:1021A00081111BC04091CE045091CF046091D004A6
:1021B0007091D1044C0D5D1D6E1D7F1DF9E0440F23
:1021C000551F661F771FFA95D1F78BEB92E0FF90B2
:1021D000EF90DF90CF900C945D0581E0FF90EF9041
:1021E000DF90CF9008959F92AF92BF92CF92DF92EF
:1021F000EF92FF920F931F93CF93DF93A82E30910E
:10220000A3052091A4059091A5058091A605309382
:102210009F052093A0059093A1058093A205432FCD
:10222000522F692F782F9090D604B42E91106AC047
:10223000C52ED62EE72EFF24C42FD0E0CC0FDD1FF5
:10224000C554DD4F4091CE045091CF046091D0042D
:102250007091D1044C0D5D1D6E1D7F1DA9E0440FD2
:10226000551F661F771FAA95D1F700E010E020E008
:1022700032E08BEB92E00E9439058111BFC04091A2
:102280009F055091A0056091A1057091A205009154
:10229000BD041091BE042091BF043091C004909001
:1022A000D604E091C104F091C204401751076207BF
:1022B000730708F053C091103AC088819981892B27
:1022C00071F4AA2009F48DC0848D958DA68DB78DEB
:1022D0000196A11DB11D848F958FA68FB78F229671
:1022E0004F5F5F4F6F4F7F4FB394F9F640939F0559
:1022F0005093A0056093A1057093A205B42E992078
:1023000009F496CF6A017B01B7E0F694E794D7947D
:10231000C794BA95D1F7842F8068B82EC82FD0E023
:10232000CC0FDD1FCC0FDD1FC554DF4F8BCF888155
:102330009981AA81BB81892B8A2B8B2B69F4AA20D6
:1023400049F1848D958DA68DB78D0196A11DB11D86
:10235000848F958FA68FB78F2496C2CF40939F0509
:102360005093A0056093A1057093A205AA2069F07F
:1023700080E0DF91CF911F910F91FF90EF90DF9060
:10238000CF90BF90AF909F90089586E08093C9044E
:1023900081E0EFCF40939F055093A0056093A10586
:1023A0007093A2058FEF9FEFAFEFBFE08883998313
:1023B000AA83BB834093A3055093A4056093A5050E
:1023C0007093A605C701B601DF91CF911F910F91C0
:1023D000FF90EF90DF90CF90BF90AF909F900C94C4
:1023E000AD1040939F055093A0056093A105709395
:1023F000A2058FEF9FEF99838883DCCF81E0B9CF6F
:102400008F929F92AF92BF92CF92DF92EF92FF9204
:102410000F931F93CF93DF936B017C018091D604C0
:10242000882309F473C04601570157E0B694A79476
:10243000979487945A95D1F74091CE045091CF0448
:102440006091D0047091D104480D591D6A1D7B1D07
:1024500039E0440F551F661F771F3A95D1F700E00A
:1024600010E020E032E08BEB92E00E943905811110
:1024700074C08091D604EC2D882309F44CC0EF770A
:10248000F0E0EE0FFF1FEE0FFF1FE554FD4F408100
:10249000518162817381D0919F05C091A0053091D7
:1024A000A1052091A205D083C183328323838D2F80
:1024B0009C2FA32FB22F0097A105B10509F047C0AB
:1024C0008091A3059091A405A091A505B091A605C2
:1024D000C816D906EA06FB0608F44DC040939F05CE
:1024E0005093A0056093A1057093A205C501B401A6
:1024F000DF91CF911F910F91FF90EF90DF90CF90E0
:10250000BF90AF909F908F900C94AD108D2C9E2C0F
:10251000AF2CBB2491CFF0E0EE0FFF1FE554FD4F31
:102520004081518160E070E030919F052091A005CD
:10253000D091A105C091A205832F922F9183808312
:10254000AD2FBC2F0097A105B10509F4B9CF8F3F7E
:102550009F4FAF4FBF4011F2C9CF81E0DF91CF91C4
:102560001F910F91FF90EF90DF90CF90BF90AF90B1
:102570009F908F900895C092A305D092A405E092F9
:10258000A505F092A605AACF0F931F9319C000913D
:10259000BD041091BE042091BF043091C0046017A7
:1025A000710782079307C8F410929F051092A00547
:1025B0001092A1051092A2050E940012811111C073
:1025C00060919F057091A0058091A1059091A20551
:1025D0006230710581059105D0F680E01F910F9161
:1025E000089581E01F910F910895CF93C82F20E0A7
:1025F00032E0EBEBF2E0DF01C9011D920197E9F750
:102600008091A705C81730F021C0CF5F8091A70542
:10261000C817E0F440919F055091A0056091A10575
:102620007091A2054C0F511D611D711DE9E0440F11
:10263000551F661F771FEA95D1F78BEB92E00E943A
:102640005D05882311F381E0CF91089580E0CF915B
:1026500008950F931F93CF93DF93C091C104D0913E
:10266000C20488899989AA89BB890097A105B10507
:1026700009F046C05C854D853E852F8550939F05AA
:102680004093A0053093A1052093A205852F942F98
:10269000A32FB22F0097A105B10509F473C0E091F3
:1026A000C104F091C204808F918FA28FB38F9C01DF
:1026B000AD012250310941095109A091A705B0E0AF
:1026C0000E946A220091C5041091C6042091C7049B
:1026D0003091C804600F711F821F931F60939F0584
:1026E0007093A0058093A1059093A205648F758FC8
:1026F000868F978F80E0DF91CF911F910F91089582
:102700009170892BB9F78C8D9D8DAE8DBF8D019603
:10271000A11DB11D8C8F9D8FAE8FBF8F4091C504C1
:102720005091C6046091C7047091C8048C019D014A
:10273000041B150B260B370BC901B8012091A70507
:1027400030E040E050E00E948922672B682B692B23
:1027500089F6888D998DAA8DBB8D80939F05909366
:10276000A005A093A105B093A2050E94EA0E8111D5
:102770002BC080919F059091A005A091A105B091DB
:10278000A20588CF80E00E94F31081111DC0E09166
:10279000C104F091C20480899189A289B389892BEF
:1027A0008A2B8B2BB9F450919F054091A005309155
:1027B000A1052091A2055487458736872787852F55
:1027C000942FA32FB22F6FCF81E0DF91CF911F9174
:1027D0000F910895608D718D828D938D0E940012EE
:1027E000E091C104F091C20480919F059091A005F1
:1027F000A091A105B091A20556CF0F931F93CF933F
:10280000DF93E091C104F091C20480A1811106C060
:1028100080E0DF91CF911F910F91089510A2408524
:10282000518562857385C9E0440F551F661F771F68
:10283000CA95D1F700E010E020E032E08BEB92E0A7
:102840000E943905882331F081E0DF91CF911F91FB
:102850000F910895C091C104D091C204EA81FB8117
:10286000EF70FF27EE0FFF1FE295F295F07FFE2736
:10287000E07FFE27E554FD4F8C899D89AE89BF8995
:10288000848F958FA68FB78F8C859D85AE85BF85EC
:10289000938F828FB58BA48B488559856A857B85FC
:1028A000B9E0440F551F661F771FBA95D1F78BEB20
:1028B00092E0DF91CF911F910F910C945D050F93E2
:1028C0001F93F901980119E0440F551F661F771FE8
:1028D0001A95D1F78F010E9439051F910F91089524
:1028E00029E0440F551F661F771F2A95D1F70C94D6
:1028F0005D052F923F924F925F926F927F928F92DF
:102900009F92AF92BF92CF92DF92EF92FF920F937E
:102910001F93CF93DF93CDB7DEB72E970FB6F89402
:10292000DEBF0FBECDBF82E090E0A0E0B0E08093BC
:10293000A3059093A405A093A505B093A6051092B6
:102940009E0510929D051092D7041092F8041092E3
:10295000190510923A0510925B0582E08093D60427
:10296000C12CD12C760100E010E020E032E0B7016C
:10297000A601E9E0440F551F661F771FEA95D1F7BE
:102980008BEB92E00E943905811196C18091B904C8
:102990009091BA0485359A4A19F58091F102909187
:1029A000F20286349144C1F180910D0390910E039F
:1029B0008634914489F1CD28CE28CF2889F480919E
:1029C0007D04882369F0C0908104D0908204E09057
:1029D0008304F0908404C114D104E104F10419F6D5
:1029E00081E08093C9042E960FB6F894DEBF0FBE27
:1029F000CDBFDF91CF911F910F91FF90EF90DF90AE
:102A0000CF90BF90AF909F908F907F906F905F908E
:102A10004F903F902F9008952091D1023091D20293
:102A200040E050E0211531054105510541F4209168
:102A3000DF023091E0024091E1025091E2024090C9
:102A4000CE025090CF02612C712C411451046104CC
:102A5000710409F4BFC02090CC023090CD023092B6
:102A6000C4042092C3048091C9029091CA029E8737
:102A70008D87A0E0B0E089839A83AB83BC834C014F
:102A80005D018C0C9D1CAE1CBF1C8092CE049092EC
:102A9000CF04A092D004B092D1041092D20410922C
:102AA000D3041092D4041092D5046091CB0262300A
:102AB00070F0DA01C901880D991DAA1DBB1D809314
:102AC000D2049093D304A093D404B093D50410916E
:102AD000C8021093A705A62FB0E00E946A226D835A
:102AE0007E838F839887329422944FE0242223247C
:102AF00034222324910140E050E029873A874B8714
:102B00005C87C301B20129813A814B815C81621BE0
:102B1000730B840B950B2D813E814F815885621B71
:102B2000730B840B950B29853A854B855C85621B5D
:102B3000730B840B950B212F30E040E050E00E9496
:102B400089222E5F3F4F4F4F5F4F2093BD0430933C
:102B5000BE044093BF045093C0048D819E81AF8119
:102B6000B885880E991EAA1EBB1E89859A85AB85DD
:102B7000BC85880D991DAA1DBB1D8093C50490932B
:102B8000C604A093C704B093C804273F9FE0390749
:102B90004105510508F424CF273F3F4F410551051A
:102BA00010F18091E7029091E802A091E902B091C2
:102BB000EA028093CA049093CB04A093CC04B09310
:102BC000CD04ED85FE85EF2BD1F481E08093D60412
:102BD00080E009CF4090DB025090DC026090DD0283
:102BE0007090DE0238CF8092CA049092CB04A092FB
:102BF000CC04B092CD041092D60480E0F4CEFFEF66
:102C0000CF1ADF0AEF0AFF0A39E0CC0CDD1CEE1CFC
:102C1000FF1C3A95D1F700E010E020E032E0B70168
:102C2000A6018BEB92E00E943905811145C080918D
:102C3000BB029091BC02A091BD02B091BE02823550
:102C40009245A146B14409F0C0CF80919F04909174
:102C5000A004A091A104B091A20482379247A1449C
:102C6000B14609F0B2CF8091B7049091B804A09119
:102C7000B904B091BA040097A545BA4A09F0A5CFA6
:102C80008FEF9FEFDC018093A3049093A404A093A3
:102C9000A504B093A6048093A7049093A804A093DE
:102CA000A904B093AA04B701A6018BEB92E00E949D
:102CB0005D05882309F489CF81E095CE0E948D0FB0
:102CC000811118C090919B04E091C104F091C2045D
:102CD000992369F08181882379F0953E79F39E32BA
:102CE00069F38091A60483FDE9CF80E00895118205
:102CF00080E0089582E008950895E091C104F09184
:102D0000C2048081823029F083E08093C90481E08D
:102D100008950C945E164F925F926F927F928F92FD
:102D20009F92AF92BF92CF92DF92EF92FF920F935A
:102D30001F93CF93DF93CDB7DEB72B970FB6F894E1
:102D4000DEBF0FBECDBF9091D604923009F4A0C073
:102D5000E091C104F091C2041082282F2F77D22E67
:102D60004485558566857785448F558F668F778F27
:102D7000148A4091CA045091CB046091CC047091A4
:102D8000CD04992351F144875587668777879091C1
:102D9000BB0291112AC0D11056C010929B0480E151
:102DA0008093A60411828091B7049091B804A091F9
:102DB000B904B091BA04848B958BA68BB78B108A1B
:102DC000118A128A138A81E080838091A60484FF8D
:102DD0005DC082E0808380E03AC014861586168646
:102DE00017869091BB029923B1F24BEBE42E42E09F
:102DF000F42E8078C82E772473944BE050E060E284
:102E000070E080E994E00E94E422F70130E058E0AD
:102E1000CF0101967C012081222399F02F32E1F12C
:102E20002E3261F1351779F04FE9420F4A3108F43B
:102E30002052E32FF0E0E057FB4F20833F5FFC017F
:102E4000E7CF311185C084E08093C90481E02B96DF
:102E50000FB6F894DEBF0FBECDBFDF91CF911F91AB
:102E60000F91FF90EF90DF90CF90BF90AF909F9029
:102E70008F907F906F905F904F900895332319F358
:102E8000583009F738E05BE0FC01C2CF80E0DFCFCB
:102E900081E08093C904DBCF81E0E816F10499F268
:102EA000E091C104F091C204118212C00091C104EA
:102EB0001091C204F8016180662081F04BE050E07F
:102EC00060E974E08BE994E00E94CE22892B31F016
:102ED0000E945E16882351F381E0B9CFDD2019F0FE
:102EE000E114F104D1F1662009F4ADCF4091B504AD
:102EF0005091B60460E070E08091D604882369F0B8
:102F00008091AF049091B004A0E0B0E0DC0199277B
:102F10008827482B592B6A2B7B2BF8014487558730
:102F200066877787E114F104B1F08091A60484FFED
:102F30008ACFCC2051F0848D958DA68DB78D8417C6
:102F40009507A607B70709F47ECFF801748A55CF15
:102F5000E12CF12CA5CFF80125CFF80184859585CA
:102F6000A685B785848F958FA68FB78F2091D604BD
:102F7000213039F06620B9F088E08093C90481E0FF
:102F800066CF4091CA045091CB046091CC047091FB
:102F9000CD0484179507A607B70761F7148E158E21
:102FA000168E178EE7CFDA948BE0E0E9F4E0DE01CD
:102FB000119601900D928A95E1F7DD20E1F080E015
:102FC0000E94F310811188CF80909F059090A005FA
:102FD000A090A105B090A2050EC0E091C104F091AF
:102FE000C2048181882309F419C180919B04853E24
:102FF000A1F0882391F00E948D0F882371F3109225
:103000009F051092A0051092A1051092A205C5017E
:10301000B4010E94001281E01ACF4085518562857B
:10302000738539E0440F551F661F771F3A95D1F716
:1030300000E010E020E032E08BEB92E00E943905E6
:103040008111DDCFE091C104F091C20482819381AE
:103050008F709927880F991F82959295907F982756
:10306000807F982785549D4F009749F220E2FC010C
:1030700011922A95E9F72BE0FE013196DC010190CF
:103080000D922A95E1F7D11029C0E091C104F09189
:10309000C204408551856285738589E0440F551FC0
:1030A000661F771F8A95D1F78BEB92E00E945D0532
:1030B000811112CFE091C104F091C20414861586EB
:1030C00016861786148A158A168A178A108A118A14
:1030D000128A138A81E0808380E0B9CE10E1FC017E
:1030E0001387938E828E6501EE24FF24D58AC48ACD
:1030F000E091C104F091C2044085518562857385D9
:1031000009E0440F551F661F771F0A95D1F78BEB17
:1031100092E00E945D058111DFCEA501940122504D
:10312000310941095109A091A705B0E00E946A2226
:103130004090C5045090C6046090C7047090C804C5
:10314000640D751D861D971D60939F057093A005E6
:103150008093A1059093A20581E00E94F5124BE0B7
:1031600050E060E270E08BEB92E00E94E4220EE21D
:103170000093BB021093C6029092D6028092D502B1
:10318000D092D002C092CF024BE050E060E270E0FB
:103190008BED92E00E94E4220093DB020093DC02BC
:1031A0001093E602E091C104F091C204848988235F
:1031B00061F084859585A685B7859093F602809306
:1031C000F502B093F002A093EF0240919F05509159
:1031D000A0056091A1057091A205A9E0440F551FBB
:1031E000661F771FAA95D1F78BEB92E02B960FB64F
:1031F000F894DEBF0FBECDBFDF91CF911F910F912D
:10320000FF90EF90DF90CF90BF90AF909F908F9006
:103210007F906F905F904F900C945D0582819381B9
:10322000892B09F44AC080E00E94F3108111E7CE97
:10323000E091C104F091C204648175818681978117
:103240000E9400128111DBCEE091C104F091C20412
:1032500040919F055091A0056091A1057091A20534
:103260004483558366837783A091A7059A01AB01B8
:103270002250310941095109B0E00E946A220091AF
:10328000C5041091C6042091C7043091C804600F92
:10329000711F821F931F60939F057093A0058093F9
:1032A000A1059093A205608771878287938780E04C
:1032B0000E94F5128BEB92E0D7CE85E08093C90493
:1032C0009ECE80E00E948B1681110DC0E091C1045A
:1032D000F091C2048081813041F0108284E08093BB
:1032E000C90481E0089581E0089580E0089580E0B8
:1032F0000E948B1681110DC0E091C104F091C204AF
:103300008081823041F0108284E08093C90481E0A2
:10331000089581E0089580E00895AF92BF92CF9222
:10332000DF92EF92FF920F931F93CF93DF936C0185
:10333000EB01E091C104F091C2048081813081F001
:1033400083E08093C904108281E0DF91CF911F91C7
:103350000F91FF90EF90DF90CF90BF90AF900895C6
:10336000209709F45BC0A12CF2E0BF2E0E94291324
:10337000E091C104F091C2048111E5CF8089918967
:10338000A289B3898C0111709501201B310B7E013C
:103390002C173D0708F47901C114D104D9F0448DEC
:1033A000558D668D778DE9E0440F551F661F771F99
:1033B000EA95D1F79701C6010E943905811127C00E
:1033C000CE0CDF1CE091C104F091C2048089918988
:1033D000A289B3898E0D9F1DA11DB11D808B918B7C
:1033E000A28BB38BCE19DF0909F0C0CF4489558970
:1033F00066897789481759076A077B0768F4848BC1
:10340000958BA68BB78B81E080A380E09ECFE09167
:10341000C104F091C20497CF80E097CF8089918951
:10342000A289B389E3CF4F925F926F927F928F927E
:103430009F92AF92BF92CF92DF92EF92FF920F9343
:103440001F93E091C104F091C204C488D588E68836
:10345000F78800891189228933892B01612C712C0D
:1034600046015701801A910AA20AB30A84149504EE
:10347000A604B70418F4B601601B710BFA0171833E
:1034800060831F910F91FF90EF90DF90CF90BF90DE
:10349000AF909F908F907F906F905F904F900C9423
:1034A0008D198F929F92AF92BF92CF92DF92EF923F
:1034B000FF926B017C01E091C104F091C2044130A4
:1034C00009F44EC0423009F454C080899189A28920
:1034D000B389C816D906EA06FB0648F1C81AD90A04
:1034E000EA0AFB0A05C0C818D908EA08FB0821F156
:1034F0004601570181E0C81680E8D806E104F104CE
:1035000028F0812CA0E89A2EA12CB12CB40180E0E7
:1035100090E00E948D19882331F381E0FF90EF90B5
:10352000DF90CF90BF90AF909F908F900895108ABA
:10353000118A128A138ADCCF0E94FD13E091C10424
:10354000F091C20480899189A289B38980939F05F3
:103550009093A005A093A105B093A20580E0DECFD3
:1035600080899189A289B389C80ED91EEA1EFB1EE3
:10357000B0CF84899589A689B789C80ED91EEA1E5D
:10358000FB1EA3CFCF92DF92EF92FF920F931F9378
:10359000CF93DF93E091C104F091C2048081813028
:1035A000A1F083E08093C9040E94FD13E091C1045F
:1035B000F091C204108281E0DF91CF911F910F91B1
:1035C000FF90EF90DF90CF9008950091BB04109191
:1035D000BC040115110509F45BC0C088D188E288DC
:1035E000F3880E9429138111DFCF81E0D822C0E047
:1035F000D2E0CC19DD090C171D0708F44DC0E0918D
:10360000C104F091C2044089518962897389DB0148
:10361000CA018C0F9D1FA11DB11DC488D588E688E5
:10362000F788C816D906EA06FB0630F4848B958B1A
:10363000A68BB78B81E080A3C11582E0D807E9F0A3
:10364000448D558D668D778DB9E0440F551F661FEB
:10365000771FBA95D1F700E010E020E032E08BEB65
:1036600092E00E94390581119FCFE091C104F09151
:10367000C2044089518962897389D093A005C0939F
:103680009F0551705093A2054093A10580E094CF0F
:1036900089E08093C90488CFE801B1CFE091C104EB
:1036A000F091C2048081813031F083E08093C904BD
:1036B000108281E00895448D558D668D778D89E067
:1036C000440F551F661F771F8A95D1F78BEB92E049
:1036D0000E945D05E091C104F091C2048111E8CF20
:1036E00020919F053091A00580899189A289B38995
:1036F000820F931FA11DB11D808B918BA28BB38B69
:103700008091BB049091BC04821B930B9093BC04EA
:103710008093BB04892B11F080E008950E94FD1373
:103720008823D1F3E091C104F091C204C1CF4F923C
:103730005F926F927F92AF92BF92CF92DF92EF92A1
:10374000FF920F931F93CF93DF93CDB7DEB76597AB
:103750000FB6F894DEBF0FBECDBFE091C104F0916B
:10376000C204808181111AC083E08093C90491E072
:10377000892F65960FB6F894DEBF0FBECDBFDF91DF
:10378000CF911F910F91FF90EF90DF90CF90BF905E
:10379000AF907F906F905F904F900895A280B3801C
:1037A000C084D184E284F38444845584668477841D
:1037B00081E80E948B1681111DC01092D7041092CF
:1037C000F8041092190510923A0510925B05B9E0C1
:1037D000CC0CDD1CEE1CFF1CBA95D1F700E010E00C
:1037E00020E032E0B701A6018BEB92E00E943905A0
:1037F000882311F091E0BCCFC5018F709927880F05
:10380000991F82959295907F9827807F982785545D
:103810009D4F25E1FC013B96DE01119601900D9232
:103820002A95E1F725EEFC012083B701A6018BEB79
:1038300092E00E945D058111DDCFE091C104F0911D
:10384000C2044085518562857385F9E0440F551F98
:10385000661F771FFA95D1F720E032E08BEB92E0FC
:103860000E9439058111C6CF8091C1049091C20494
:10387000FC01028113810F701127000F111F0295A7
:103880001295107F1027007F102705541D4F25E14A
:10389000FE013196D8011B9601900D922A95E1F711
:1038A000FC014085518562857385E9E0440F551F11
:1038B000661F771FEA95D1F78BEB92E00E945D05BA
:1038C000811198CFF801838584FD02C090E050CF2C
:1038D000A091A705A3019201225031094109510984
:1038E000B0E00E946A22C090C504D090C604E09067
:1038F000C704F090C8046C0D7D1D8E1D9F1D609344
:103900009F057093A0058093A1059093A205AB013C
:10391000BC0129E0440F551F661F771F2A95D1F778
:1039200000E010E020E032E08BEB92E00E943905ED
:10393000811160CFE091C104F091C204848D958D16
:10394000A68DB78D9093F6028093F502B093F002A6
:10395000A093EF0240919F055091A0056091A105B1
:103960007091A20599E0440F551F661F771F9A9525
:10397000D1F78BEB92E00E945D0591E08111F8CECA
:10398000A5CFCF93DF93EB01BC018BEB92E00E94BC
:10399000F62280E00E948B16882321F081E0DF91DF
:1039A000CF910895BE018BEB92E00E94F622DF9149
:1039B000CF910C94971BCF92DF92EF92FF920F93CF
:1039C0001F93CF93DF9380E00E948B1681113BC041
:1039D0001092D7041092F8041092190510923A052B
:1039E00010925B0580919B048823B9F1E091C1049A
:1039F000F091C204C084D184E284F384C281D38173
:103A00008091A60484FF0CC011820E945E16811171
:103A10001AC0E091C104F091C2048181811151C0AA
:103A200009E0CC0CDD1CEE1CFF1C0A95D1F700E070
:103A300010E020E032E0B701A6018BEB92E00E949B
:103A40003905882371F081E0DF91CF911F910F91AB
:103A5000FF90EF90DF90CF90089584E08093C904A9
:103A6000F2CFCF70DD27CC0FDD1FC295D295D07F6E
:103A7000DC27C07FDC27C554DD4F85EE8883B70186
:103A8000A6018BEB92E00E945D058111DCCFE091F5
:103A9000C104F091C20484859585A685B78580937D
:103AA0009F059093A005A093A105B093A205DF9177
:103AB000CF911F910F91FF90EF90DF90CF900C94DA
:103AC000C41287E08093C904BECFE091C104F09195
:103AD000C2048081813031F083E08093C904108278
:103AE00081E0089580899189A289B389892B8A2BE5
:103AF0008B2B59F584859585A685B78580939F0581
:103B00009093A005A093A105B093A20514861586F5
:103B1000168617860E94C412E091C104F091C20477
:103B20008111DDCF80899189A289B389848B958B9E
:103B3000A68BB78B81E080A30E94FD138823D1F070
:103B4000E091C104F091C204CACF8FEF9FEFAFEFB5
:103B5000BFE080939F059093A005A093A105B0932B
:103B6000A205608D718D828D938D0E940012882335
:103B700089F2E6CF80E008950F931F93CF93DF93F0
:103B8000EC016115710579F17093BC046093BB047D
:103B90001AC000919F051091A0058091A1059091F8
:103BA000A205A801BE0185549D4F0E94DB22C00FD3
:103BB000D11F0E944E1B81110AC08091BB049091BD
:103BC000BC04892B51F00E94C21A882311F381E0B2
:103BD000DF91CF911F910F91089580E0DF91CF91F8
:103BE0001F910F910895DF91CF911F910F910C9428
:103BF000651D21E2829FC001112489529B4F909341
:103C0000C2048093C1040895E091C104F091C204FC
:103C10001082148E158E168E178E81E00E94F3107E
:103C2000811126C0E091C104F091C204248D358D2C
:103C3000468D578D8AE056954795379527958A95F5
:103C4000D1F72F5F3F4F4F4F5F4F569547953795B1
:103C50002795A091A705B0E00E946A2260939F0576
:103C60007093A0058093A1059093A20580E008952C
:103C700081E008958091D604823031F12091BD0415
:103C80003091BE044091BF045091C0046AE0569543
:103C90004795379527956A95D1F72F5F3F4F4F4F3F
:103CA0005F4F5695479537952795A091A705B0E0AA
:103CB0000E946A2260939F057093A0058093A105DE
:103CC0009093A20580E0089581E08093C90408954F
:103CD000E091C104F091C2048081813029F083E039
:103CE0008093C90481E0089584899589A689B7895C
:103CF00080939F059093A005A093A105B093A20582
:103D000080E00895E091C104F091C2048081813087
:103D100029F083E08093C90481E008958089918926
:103D2000A289B38980939F059093A005A093A105D4
:103D3000B093A20580E008958BEB92E008956F9216
:103D40007F929F92AF92BF92CF92DF92EF92FF92BB
:103D50000F931F93CF93DF93CDB7DEB72C970FB69A
:103D6000F894DEBF0FBECDBF8C017B013A01FC0190
:103D700017821682838181FF19C1CE0101965C01F1
:103D8000F801D380F701D3FC2591D3FE21917F0167
:103D9000222309F407C1253249F4D3FC2591D3FE2F
:103DA00021917F01253211F0912C1BC0B801822F87
:103DB00090E00E94FD2263013601E2CF222309F444
:103DC000F1C0622F70E08BE590E02C870E94C32247
:103DD0002C85892B49F0F701D3FC2591D3FE219145
:103DE0007F0197FEEBCF0CC0233221F4F92DF06157
:103DF0009F2EF1CF2C3639F4292D2068922EEBCF4F
:103E0000222309F4CFC0622F70E084E590E02C8774
:103E10000E94C3222C85892B41F06301F4E0CF0E70
:103E2000D11CB8018FE390E012C0233641F0233754
:103E300089F0233521F5F92DF1609F2E0BC0630128
:103E400022E0C20ED11CB801F301808191810E9451
:103E5000FD22B2CF630122E0C20ED11CF3016080CB
:103E60007180F30190FC859190FE81913F01882340
:103E700009F4A2CFB80190E00E94FD22F2CF2436CF
:103E800011F0293639F5630197FE09C0F4E0CF0E31
:103E9000D11CF30160817181828193810AC0F2E0BB
:103EA000CF0ED11CF30160817181882777FD809549
:103EB000982FF92DFF7E9F2E97FF09C09095809532
:103EC000709561957F4F8F4F9F4FF0649F2E2AE032
:103ED00030E038C02037A1F040F42835D1F02F363B
:103EE00009F060C028E030E019C0253719F0283704
:103EF00051F058C0292D2F7E922E2AE030E00EC0BE
:103F0000892D8061982E992D9462992E20E130E0C0
:103F100005C0E92DE4609E2E20E132E0630197FEAA
:103F200009C0F4E0CF0ED11CF30160817181828160
:103F3000938108C0F2E0CF0ED11CF3016081718142
:103F400080E090E0A5010E945123782E7A1896FE19
:103F500005C0B8018DE290E00E94FD2294FE16C0DB
:103F6000FE01E70DF11D8081803381F0B80180E30F
:103F700090E00E94FD2292FE09C0292D2072822F1E
:103F800090E0B801885A9F4F0E94FD227A94F50173
:103F9000E70DF11D8081B80190E00E94FD227110B3
:103FA000F5CF0ACFF8018681978102C08FEF9FEF8E
:103FB0002C960FB6F894DEBF0FBECDBFDF91CF9128
:103FC0001F910F91FF90EF90DF90CF90BF90AF9037
:103FD0009F907F906F900895CF93DF93CDB7DEB71A
:103FE00062970FB6F894DEBF0FBECDBF88E10FB663
:103FF000F89481BD11BC0FBE89E085BF80E48BBF02
:104000001ABA1BBA82E081BB91EB97BB99E198BBCE
:1040100010BC19B88BB988EB8AB986E880BD1092BC
:10402000A9021092AA02109227021092280287E693
:1040300090E09093AB058093AA0580E58DB9709AC6
:104040001092A40178948FE19EE40197F1F700C0EB
:10405000000083EC90E09F938F938FE493E09F9315
:104060008F930E942F2385E293E09F938F930E946A
:104070002F23C49A0F900F900F900F900F900F90D6
:1040800089E090E02FEF2FB9779BFECF3FB10197EA
:104090000097C9F7C49840E050E0BA0180E00E9460
:1040A000B6048FEF8FB9779BFECF8FB100E010E0A1
:1040B000FF24FA9440E050E0BA0181E00E94B60487
:1040C000FFB8779BFECF9FB1882331F00F5F1F4F62
:1040D0000F3F9FEF190771F740E050E0BA018AE007
:1040E0000E94B60490E09A8B898B892B09F06CC0F2
:1040F00040E050E060E170E0CE0101960E94EB04E8
:10410000882349F082ED92E09F938F930E942F23A2
:1041100085E00E9489048B818F938A818F938981A6
:104120001F928F938BEB92E09F938F930E942F238C
:104130008FEA92E09F938F930E942F2365E0CE0138
:1041400004960E944E048B858F938A858F93898570
:104150001F928F938CE992E09F938F930E942F235D
:104160000E949C1E8C010E94791490E09A8B898B8E
:104170000FB6F894DEBF0FBECDBF892BC1F4F80196
:10418000108285E00E94F91D0E947719282F30E0E7
:104190003A8B298B232B29F11F928F9389E392E08D
:1041A0009F938F930E942F2384E00E948904809123
:1041B000C9041F928F9381E792E09F938F930E948F
:1041C0002F2383E00E9489041F930F9386EF92E0D0
:1041D0009F938F930E942F230F900F900F900F901B
:1041E00087CF84E092E09F938F930E942F230F90BC
:1041F0000F90A12CB12C980120523E4F7901C8019B
:1042000085519E4F1C01F801E450FE4F6F019EEC5A
:10421000492E91E0592E2BED622E21E0722E3BEEBD
:10422000832E31E0932E22C0F101808110828031F3
:10423000C9F1F60183818F9382818F9381818F935E
:1042400080818F93FF92EF92BF92AF925F924F92D5
:104250000E942F230FB6F894DEBF0FBECDBF3FEFF5
:10426000A31AB30A84E1A816B10459F10E947D167D
:1042700090E09A8B898BF7012081222311F1892B01
:1042800099F28091C9041F928F93BF92AF929F922F
:104290008F920E942F230F900F900F900F900F90EE
:1042A0000F90DDCFFF92EF92BF92AF927F926F920D
:1042B0000E942F230F900F900F900F900F900F9050
:1042C000CECFBF92AF9280EB91E09F938F930E94ED
:1042D0002F230F900F900F900F90B3990BC08BE886
:1042E00091E09F938F930E942F230F900F90FF24B4
:1042F000F39401C0F12CC09A81E591E09F938F93D4
:104300000E942F230F900F908091A4018823E1F346
:1043100082E581BB80E582BB0E9448078AE291E08A
:104320009F938F930E942F2385E00E94F91D8AE0BE
:10433000ECE8F0E0D80101900D928A95E1F70F903A
:104340000F90FF2009F463C08BEE90E09F938F9352
:104350000E942F230F900F9087E890E09F938F93F8
:104360000E942F2360E08FE10E94E9090F900F90D7
:1043700086E991E09F938F938BE790E09F938F93D3
:104380000E942F23BEEF8B2EB0E09B2E0F900F903C
:104390000F900F906401E12CF12C01E410E08BE60A
:1043A000682E80E0782EF701E65BFE4F5F01BF923A
:1043B000EF93C7018C5F9E4F9F938F931F930F9333
:1043C0007F926F920E942F2341E0B5018C2D8819B6
:1043D0000E942E08F60111926F010F5F1F4FFEE041
:1043E000EF0EF11C0FB6F894DEBF0FBECDBF053443
:1043F0001105C9F640E067EC70E084E00E942E08E9
:1044000081E0809302018BB780688BBFFFCF0E9451
:10441000611990E09A8B898B892B09F09DCFAE01B1
:104420004F5E5F4F6EE770E087EA91E00E94131ADB
:104430008EE0E7EAF1E0A4E0B1E001900D928A9508
:10444000E1F78EE0E5EBF1E0AAE4B1E001900D9236
:104450008A95E1F78EE0E3ECF1E0A2E1B1E00190B2
:104460000D928A95E1F78EE0E1EDF1E0A8E5B1E08B
:1044700001900D928A95E1F78EE0EFEDF1E0A0E278
:10448000B1E001900D928A95E1F78EE0EDEEF1E05A
:10449000A6E6B1E001900D928A95E1F78EE0EBEF90
:1044A000F1E0AEE2B1E001900D928A95E1F78EE085
:1044B000E9E0F2E0A4E7B1E001900D928A95E1F71E
:1044C0008EE0E7E1F2E0A6E9B1E001900D928A9575
:1044D000E1F74ECF0E94AB22A59F900DB49F900DA7
:1044E000A49F800D911D11240895AA1BBB1B51E1AF
:1044F00007C0AA1FBB1FA617B70710F0A61BB70B54
:10450000881F991F5A95A9F780959095BC01CD01F8
:104510000895A1E21A2EAA1BBB1BFD010DC0AA1F04
:10452000BB1FEE1FFF1FA217B307E407F50720F01C
:10453000A21BB30BE40BF50B661F771F881F991F97
:104540001A9469F760957095809590959B01AC01E0
:10455000BD01CF010895A29FB001B39FC001A39FE9
:10456000700D811D1124911DB29F700D811D1124AC
:10457000911D0895FB01DC0102C005900D92415090
:104580005040D8F70895FC010590061621F0002050
:10459000D9F7C00108953197CF010895FB01DC01DF
:1045A00004C08D910190801921F441505040C8F70A
:1045B000881B990B0895FB01DC0102C001900D924C
:1045C00041505040D8F70895DC0101C06D9341502F
:1045D0005040E0F70895FB01DC010D900020E9F761
:1045E000119701900D920020E1F70895FB01DC0185
:1045F00001900D920020E1F708950F931F93CF9340
:10460000DF93182F092FEB018B8181FD03C08FEF02
:104610009FEF20C082FF10C04E815F812C813D81C1
:10462000421753077CF4E881F9819F012F5F3F4FC8
:1046300039832883108306C0E885F985812F099581
:10464000892B29F72E813F812F5F3F4F3F832E8398
:10465000812F902FDF91CF911F910F910895A0E0AE
:10466000B0E0E5E3F3E20C94BD23FE0137966191DF
:1046700071910AEA15E0D8018D919C91DC011396A5
:104680002C911397286013962C93AF010E949F1EC4
:10469000D801ED91FC912381277F2383E4E00C94E2
:1046A000D923FA01AA27283051F1203181F1E89469
:1046B0006F936E7F6E5F7F4F8F4F9F4FAF4FB1E015
:1046C0003ED0B4E03CD0670F781F891F9A1FA11D10
:1046D000680F791F8A1F911DA11D6A0F711D811D11
:1046E000911DA11D20D009F468943F912AE0269FD6
:1046F00011243019305D3193DEF6CF010895462F35
:104700004770405D4193B3E00FD0C9F7F6CF462F15
:104710004F70405D4A3318F0495D31FD405241937E
:1047200002D0A9F7EACFB4E0A6959795879577953B
:104730006795BA95C9F700976105710508959B01C2
:10474000AC010A2E06945795479537952795BA954B
:10475000C9F7620F731F841F951FA01D08952F9224
:104760003F924F925F926F927F928F929F92AF9201
:10477000BF92CF92DF92EF92FF920F931F93CF934E
:10478000DF93CDB7DEB7CA1BDB0B0FB6F894DEBFE5
:104790000FBECDBF09942A88398848885F846E840B
:1047A0007D848C849B84AA84B984C884DF80EE8055
:1047B000FD800C811B81AA81B981CE0FD11D0FB65E
:1047C000F894DEBF0FBECDBFED010895F894FFCF82
:1047D000D400DF00EC0001000000020000000087B0
:1047E00003000000003A20005354414745322E5246
:1047F0004F4D00524F4D582E42494E004D4F554E91
:10480000542E434647004449534B412E4B444900E4
:104810004449534B422E4B4449004449534B432E89
:104820004B4449004449534B442E4B4449004449AE
:10483000534B00312E3300455852544F4F4C532E9A
:104840004B44490053595354454D2E42494E004D57
:104850004943524F444F532E42494E0053595354EB
:08486000454D6E2E42494E0049
:00000001FF
